{
  "_format": "hh-sol-artifact-1",
  "contractName": "FlashLender",
  "sourceName": "contracts/FlashLender.sol",
  "abi": [
    {
      "inputs": [
        {
          "internalType": "uint256",
          "name": "amount",
          "type": "uint256"
        },
        {
          "internalType": "bytes",
          "name": "callbackData",
          "type": "bytes"
        }
      ],
      "name": "flashBorrow",
      "outputs": [],
      "stateMutability": "nonpayable",
      "type": "function"
    }
  ],
  "bytecode": "0x608060405234801561001057600080fd5b506105bb806100206000396000f3fe608060405234801561001057600080fd5b506004361061002b5760003560e01c8063167ec36d14610030575b600080fd5b61004a60048036038101906100459190610373565b61004c565b005b73c02aaa39b223fe8d0a0e5c4f27ead9083c756cc273ffffffffffffffffffffffffffffffffffffffff1663a9059cbb33846040518363ffffffff1660e01b815260040161009b92919061041f565b6020604051808303816000875af11580156100ba573d6000803e3d6000fd5b505050506040513d601f19601f820116820180604052508101906100de9190610480565b503373ffffffffffffffffffffffffffffffffffffffff1663e3739238826040518263ffffffff1660e01b8152600401610118919061052c565b600060405180830381600087803b15801561013257600080fd5b505af1158015610146573d6000803e3d6000fd5b5050505073c02aaa39b223fe8d0a0e5c4f27ead9083c756cc273ffffffffffffffffffffffffffffffffffffffff166323b872dd3330856040518463ffffffff1660e01b815260040161019b9392919061054e565b6020604051808303816000875af11580156101ba573d6000803e3d6000fd5b505050506040513d601f19601f820116820180604052508101906101de9190610480565b505050565b6000604051905090565b600080fd5b600080fd5b6000819050919050565b61020a816101f7565b811461021557600080fd5b50565b60008135905061022781610201565b92915050565b600080fd5b600080fd5b6000601f19601f8301169050919050565b7f4e487b7100000000000000000000000000000000000000000000000000000000600052604160045260246000fd5b61028082610237565b810181811067ffffffffffffffff8211171561029f5761029e610248565b5b80604052505050565b60006102b26101e3565b90506102be8282610277565b919050565b600067ffffffffffffffff8211156102de576102dd610248565b5b6102e782610237565b9050602081019050919050565b82818337600083830152505050565b6000610316610311846102c3565b6102a8565b90508281526020810184848401111561033257610331610232565b5b61033d8482856102f4565b509392505050565b600082601f83011261035a5761035961022d565b5b813561036a848260208601610303565b91505092915050565b6000806040838503121561038a576103896101ed565b5b600061039885828601610218565b925050602083013567ffffffffffffffff8111156103b9576103b86101f2565b5b6103c585828601610345565b9150509250929050565b600073ffffffffffffffffffffffffffffffffffffffff82169050919050565b60006103fa826103cf565b9050919050565b61040a816103ef565b82525050565b610419816101f7565b82525050565b60006040820190506104346000830185610401565b6104416020830184610410565b9392505050565b60008115159050919050565b61045d81610448565b811461046857600080fd5b50565b60008151905061047a81610454565b92915050565b600060208284031215610496576104956101ed565b5b60006104a48482850161046b565b91505092915050565b600081519050919050565b600082825260208201905092915050565b60005b838110156104e75780820151818401526020810190506104cc565b60008484015250505050565b60006104fe826104ad565b61050881856104b8565b93506105188185602086016104c9565b61052181610237565b840191505092915050565b6000602082019050818103600083015261054681846104f3565b905092915050565b60006060820190506105636000830186610401565b6105706020830185610401565b61057d6040830184610410565b94935050505056fea2646970667358221220c52cc2df4b4f8692dc9e98881663be0a06c7bf00c372127efe267bcb1701364264736f6c63430008120033",
  "linkReferences": {},
  "deployedLinkReferences": {}
}