{
  "_format": "hh-sol-artifact-1",
  "contractName": "SmartContractWallet",
  "sourceName": "contracts/SmartContractWallet.sol",
  "abi": [
    {
      "inputs": [],
      "stateMutability": "nonpayable",
      "type": "constructor"
    },
    {
      "inputs": [
        {
          "components": [
            {
              "internalType": "address",
              "name": "callee",
              "type": "address"
            },
            {
              "internalType": "bytes4",
              "name": "functionSelector",
              "type": "bytes4"
            },
            {
              "internalType": "bytes",
              "name": "data",
              "type": "bytes"
            }
          ],
          "internalType": "struct SmartContractWallet.Call[]",
          "name": "calls",
          "type": "tuple[]"
        }
      ],
      "name": "execute",
      "outputs": [],
      "stateMutability": "nonpayable",
      "type": "function"
    }
  ],
  "bytecode": "0x60a060405234801561001057600080fd5b503373ffffffffffffffffffffffffffffffffffffffff1660808173ffffffffffffffffffffffffffffffffffffffff168152505060805161079c61005f60003960006050015261079c6000f3fe608060405234801561001057600080fd5b506004361061002b5760003560e01c8063472f07fe14610030575b600080fd5b61004a60048036038101906100459190610595565b61004c565b005b60007f000000000000000000000000000000000000000000000000000000000000000073ffffffffffffffffffffffffffffffffffffffff163373ffffffffffffffffffffffffffffffffffffffff16146100a657600080fd5b60005b82518160ff16101561021057828160ff16815181106100cb576100ca6105de565b5b60200260200101516000015173ffffffffffffffffffffffffffffffffffffffff16838260ff1681518110610103576101026105de565b5b602002602001015160200151848360ff1681518110610125576101246105de565b5b602002602001015160400151604051602401610141919061068c565b604051602081830303815290604052907bffffffffffffffffffffffffffffffffffffffffffffffffffffffff19166020820180517bffffffffffffffffffffffffffffffffffffffffffffffffffffffff83818316178352505050506040516101ab91906106ea565b6000604051808303816000865af19150503d80600081146101e8576040519150601f19603f3d011682016040523d82523d6000602084013e6101ed565b606091505b505080925050816101fd57600080fd5b80806102089061073d565b9150506100a9565b505050565b6000604051905090565b600080fd5b600080fd5b600080fd5b6000601f19601f8301169050919050565b7f4e487b7100000000000000000000000000000000000000000000000000000000600052604160045260246000fd5b6102778261022e565b810181811067ffffffffffffffff821117156102965761029561023f565b5b80604052505050565b60006102a9610215565b90506102b5828261026e565b919050565b600067ffffffffffffffff8211156102d5576102d461023f565b5b602082029050602081019050919050565b600080fd5b600080fd5b600080fd5b600073ffffffffffffffffffffffffffffffffffffffff82169050919050565b6000610320826102f5565b9050919050565b61033081610315565b811461033b57600080fd5b50565b60008135905061034d81610327565b92915050565b60007fffffffff0000000000000000000000000000000000000000000000000000000082169050919050565b61038881610353565b811461039357600080fd5b50565b6000813590506103a58161037f565b92915050565b600080fd5b600067ffffffffffffffff8211156103cb576103ca61023f565b5b6103d48261022e565b9050602081019050919050565b82818337600083830152505050565b60006104036103fe846103b0565b61029f565b90508281526020810184848401111561041f5761041e6103ab565b5b61042a8482856103e1565b509392505050565b600082601f83011261044757610446610229565b5b81356104578482602086016103f0565b91505092915050565b600060608284031215610476576104756102eb565b5b610480606061029f565b905060006104908482850161033e565b60008301525060206104a484828501610396565b602083015250604082013567ffffffffffffffff8111156104c8576104c76102f0565b5b6104d484828501610432565b60408301525092915050565b60006104f36104ee846102ba565b61029f565b90508083825260208201905060208402830185811115610516576105156102e6565b5b835b8181101561055d57803567ffffffffffffffff81111561053b5761053a610229565b5b8086016105488982610460565b85526020850194505050602081019050610518565b5050509392505050565b600082601f83011261057c5761057b610229565b5b813561058c8482602086016104e0565b91505092915050565b6000602082840312156105ab576105aa61021f565b5b600082013567ffffffffffffffff8111156105c9576105c8610224565b5b6105d584828501610567565b91505092915050565b7f4e487b7100000000000000000000000000000000000000000000000000000000600052603260045260246000fd5b600081519050919050565b600082825260208201905092915050565b60005b8381101561064757808201518184015260208101905061062c565b60008484015250505050565b600061065e8261060d565b6106688185610618565b9350610678818560208601610629565b6106818161022e565b840191505092915050565b600060208201905081810360008301526106a68184610653565b905092915050565b600081905092915050565b60006106c48261060d565b6106ce81856106ae565b93506106de818560208601610629565b80840191505092915050565b60006106f682846106b9565b915081905092915050565b7f4e487b7100000000000000000000000000000000000000000000000000000000600052601160045260246000fd5b600060ff82169050919050565b600061074882610730565b915060ff820361075b5761075a610701565b5b60018201905091905056fea26469706673582212208bb205105104f7cf938153a22b23ac08601f18d1a1550517b927ff76c515701d64736f6c63430008120033",
  "linkReferences": {},
  "deployedLinkReferences": {}
}